:040000000128FE2FA6
:100C4600F0002000111E242E700823009A000800D0
:100C560021009D149D182D2E1C08F200F301720828
:100C6600F300F2017208F5007308F6001B08750719
:100C7600F20076080318760AF3007208F500730886
:100C8600F6007608F1007508F00008007008710497
:100C96000319702EF501F50AF11B5B2E0130F035B4
:100CA600F10D890B522E0130F4007408F5074F2E12
:100CB60071087302031D612E70087202031C672EF1
:100CC6007008F2027108F33B0130F136F00C890B23
:100CD600682E0130F502031D5B2E7308F1007208C1
:100CE600F0000800F501F601700871040319A42E3E
:100CF600F701F70AF11B892E0130F035F10D890B4A
:100D0600802E0130F4007408F7077D2E0130F5358A
:100D1600F60D890B8A2E71087302031D942E700836
:100D26007202031C9B2E7008F2027108F33B7514C5
:100D36000130F136F00C890B9C2E0130F702031DB1
:100D4600892E7608F1007508F00008002100991335
:100D5600783099041908FC39023899000C108C1067
:100D66000C158C150C128C1223000C1521001D0875
:100D7600833908389D0022009716171221001E0895
:100D86008F3920389E009E171D1422009D171D15B1
:100D9600903023009D0024309E0067309B00033076
:100DA600FA000830F9007830F800F80BD82EF90B65
:100DB600D82EFA0BD82E21001D08833908389D003D
:100DC6000630F9003030F800F80BE72EF90BE72E65
:100DD60000002B2671082000A5007008A4000A3028
:100DE600F0000030F1002508F3002408F20049263F
:100DF6007008303EF80078082000A0000A30F000A5
:100E06000030F1002508F3002408F2007526710869
:100E16002000A5007008A4000A30F0000030F100A0
:100E26002508F3002408F20049267008303EF80031
:100E360078082000A1000A30F0000030F1002508F3
:100E4600F3002408F200752671082000A50070083A
:100E5600A4000A30F0000030F1002508F300240851
:100E6600F20049267008303EF80078082000A200FB
:100E76000A30F0000030F1002508F3002408F200E3
:100E8600752671082000A5007008A4000A30F0003D
:100E96000030F1002508F3002408F2004926700806
:100EA600303EF80078082000A300230823262000FF
:100EB6002208232620002108232620002008232696
:100EC6002C3023262030232621001D088339743830
:100ED6009D000630F9003030F800F80B702FF90B42
:100EE600702F00002B2671082000A5007008A400B2
:100EF6000A30F0000030F1002508F3002408F20063
:100F060049267008303EF80078082000A0000A3014
:100F1600F0000030F1002508F3002408F2007526E1
:100F260071082000A5007008A4000A30F000003007
:100F3600F1002508F3002408F20049267008303E27
:100F4600F80078082000A1000A30F0000030F10017
:100F56002508F3002408F200752671082000A50074
:100F66007008A4000A30F0000030F1002508F300F4
:100F76002408F20049267008303EF8007808200060
:100F8600A2000A30F0000030F1002508F300240822
:100F9600F200752671082000A5007008A4000A302A
:100FA600F0000030F1002508F3002408F20049267D
:100FB6007008303EF80078082000A3002308232696
:100FC60020002208232620002108232620002008AE
:100FD60023260D3023260A3023260230FA00FE305F
:100FE600F9001330F800F80BF62FF90BF62FFA0B71
:0A0FF600F62F0032DE2E2000A92E97
:020000040001F9
:04000E00E4C9FFDE64
:00000001FF
