:040000000128FE2FA6
:100F5E0021009913783099041908FC390238990048
:100F6E0023008C0121008C0120008C0122009D1792
:100F7E001D15903023009D0024309E0067309B008D
:100F8E001530F2004B30F100D130F000F00BCD2FC8
:100F9E00F10BCD2FF20BCD2F00003030F3000030CF
:100FAE00F4002000111ED82F730823009A00013080
:100FBE00F3070030F43D7408803AF0008030700280
:100FCE00031DEB2F7C307302031CF12F3030F30026
:100FDE000030F4000330F2000830F1007830F000F9
:100FEE00F00BF72FF10BF72FF20BF72FD82F200066
:020FFE00AF2F13
:020000040001F9
:04000E00A4C9FFDEA4
:00000001FF
