:040000000128FE2FA6
:100D600021009D149D18B22E1C08F200F301720898
:100D7000F300F2017208F5007308F6001B0875070E
:100D8000F20076080318760AF3007208F50073087B
:100D9000F6007608F1007508F0000800700871048C
:100DA0000319F52EF501F50AF11BE02E0130F0359F
:100DB000F10D890BD72E0130F4007408F507D42EFD
:100DC00071087302031DE62E70087202031CEC2EDC
:100DD0007008F2027108F33B0130F136F00C890B18
:100DE000ED2E0130F502031DE02E7308F1007208AC
:100DF000F0000800F501F601700871040319292FAD
:100E0000F701F70AF11B0E2F0130F035F10D890BB8
:100E1000052F0130F4007408F707022F0130F53573
:100E2000F60D890B0F2F71087302031D192F70081F
:100E30007202031C202F7008F2027108F33B751434
:100E40000130F136F00C890B212F0130F702031D20
:100E50000E2F7608F1007508F000080021009913A4
:100E6000783099041908FC39023899000C108C105C
:100E70000C158C110C128C122200981323000C15E7
:100E800021001D08833908389D001D141E088F3964
:100E900010389E009E1722009D171D1590302300CC
:100EA0009D0024309E0067309B000B30FA002630F6
:100EB000F9006630F800F80B5B2FF90B5B2FFA0B8B
:100EC0005B2F0032B02671082000A5007008A40036
:100ED0000A30F0000030F1002508F3002408F20089
:100EE000CE267008303EF80078082000A0000A30B6
:100EF000F0000030F1002508F3002408F200FA2683
:100F000071082000A5007008A4000A30F00000302D
:100F1000F1002508F3002408F200CE267008303EC8
:100F2000F80078082000A1000A30F0000030F1003D
:100F30002508F3002408F200FA2671082000A50015
:100F40007008A4000A30F0000030F1002508F3001A
:100F50002408F200CE267008303EF8007808200001
:100F6000A2000A30F0000030F1002508F300240848
:100F7000F200FA2671082000A5007008A4000A30CB
:100F8000F0000030F1002508F3002408F200CE261E
:100F90007008303EF80078082000A300111ECE2F04
:100FA000230823009A002000111ED32F22082300BB
:100FB0009A002000111ED92F210823009A0020003A
:100FC000111EDF2F200823009A002000111EE52F9C
:100FD0000D3023009A002000111EEB2F0A30230051
:100FE0009A000530FA000F30F900F430F800F80BE1
:100FF000F72FF90BF72FFA0BF72F622F20002E2F68
:020000040001F9
:04000E00A4C9FFDEA4
:00000001FF
