:040000000128FE2FA6
:100F58002100991319088739703899001908FC3944
:100F68000238990023008C0121008C0120008C019B
:100F780022009D171D15903023009D0024309E00EF
:100F880033309B000B30F2002630F1006630F00061
:100F9800F00BCC2FF10BCC2FF20BCC2F00323030D2
:100FA800F3000030F4002000111ED72F730823002F
:100FB8009A000130F3070030F43D7408803AF000DD
:100FC80080307002031DEA2F7C307302031CF02F5F
:100FD8003030F3000030F4000230F2000430F10049
:100FE800BA30F000F00BF62FF10BF62FF20BF62FBC
:080FF8000000D72F2000AC2FF0
:020000040001F9
:04000E00A4C9FFDEA4
:00000001FF
